:100000000C942A000C943F000C943F000C943F0089
:100010000C943F000C943F000C943F000C943F0064
:100020000C943F000C943F000C943F000C943F0054
:100030000C943F000C943F000C943F000C943F0044
:100040000C943F000C943F000C943F000C943F0034
:100050000C943F0011241FBECFE5D8E0DEBFCDBF1A
:1000600010E0A0E6B0E0E6E4F1E002C005900D92F9
:10007000AA36B107D9F70E946E000C94A1000C9427
:1000800000006AE070E00E94790025B32D7F25BB57
:10009000FB01E05AFF4F208122BB25B3216025BB25
:1000A0002FEF31EE44E0215030404040E1F700C0F6
:1000B000000025B32E7F25BBFC01E05AFF4F808155
:1000C00082BB85B3826085BB8FEF91EE24E08150C7
:1000D00090402040E1F700C00000089584B38360A1
:1000E00084BB8FEF81BB82BB87E090E00E94410020
:1000F000FBCF97FB072E16F4009407D077FD09D0AD
:100100000E948D0007FC05D03EF4909581959F4F8D
:100110000895709561957F4F0895AA1BBB1B51E10F
:1001200007C0AA1FBB1FA617B70710F0A61BB70B67
:10013000881F991F5A95A9F780959095BC01CD010C
:060140000895F894FFCFC2
:0A014600C0F9A4B0999282F88090ED
:00000001FF
